:020000040800F2
:100000000050002021020008270200082B020008EF
:100010009D020008A1020008E9020008000000009B
:100020000000000000000000000000003103000894
:100030003503000800000000390300085D1D0008BA
:100040004D0300084D0300084D0300084D03000850
:100050004D0300084D0300084D0300084D03000840
:100060004D0300084D0300084D0300084D03000830
:100070004D0300084D0300084D0300084D03000820
:100080004D0300084D0300084D0300084D03000810
:100090004D0300084D0300084D0300084D03000800
:1000A0004D0300084D0300084D0300084D030008F0
:1000B0004D0300084D0300084D0300084D030008E0
:1000C0004D0300084D0300084D030008251C0008DF
:1000D000491C00084D0300084D0300084D030008AB
:1000E0004D0300084D0300084D0300080000000008
:1000F0000000000000000000000000000000000000
:1001000000000000000000005FF808F100B583B0B7
:1001100000F0AAF9304B314A1360314A1360314B79
:10012000314A32498B4204D21168196004330432D7
:10013000F7E72A4B1A682E4B9A4200D0FEE7284B6D
:100140001A682C4B9A42F9D1234B2B4A13602B4A45
:1001500013602B4B02E000221A600433294A9342B9
:10016000F9D3254B1B6813B9244B1B6803B1FEE779
:1001700000F086F9694601A800F022F9224C234BD1
:10018000E41AA4100025AC4214DC214C214BE41AE3
:10019000A4100025AC4213DC0099019802F030FA5B
:1001A00005461D4C1D4BE41AA410002C0EDC2846FD
:1001B00000F0E2F8154B53F8253098470135E2E797
:1001C000144B53F8253098470135E3E7013C134BB6
:1001D00053F824309847E8E7BABADECA0000002096
:1001E000CC00002000000020E8340008D0000020EF
:1001F0007856341232547698D0000020FC0100204A
:10020000D0000020000200207803000878030008D6
:1002100078030008780300087803000878030008D2
:1002200008B5FFF773FF00BEFEE71EF0040F0CBF1A
:10023000EFF30880EFF309807146414A10472DE93A
:10024000F04182B004468846124B5E6B9F6B9D6AFC
:100250001B6B13F0020F03D00E4BDB6A002B0CDB81
:100260000D4800F0B5F8CDF800803B4632462946EF
:10027000204600F009F900BEFEE74BF6AB6100F046
:100280007DF90028ECD0034B4FF00042DA6202B057
:10029000BDE8F08100ED00E0F031000800BEFEE7AF
:1002A0001EF0040F0CBFEFF30880EFF309807146D6
:1002B000244A10472DE9F04182B004468846084B95
:1002C0005E6B9F6B9D6A074800F082F8CDF8008056
:1002D0003B4632462946204600F0D6F800BEFEE7EF
:1002E00000ED00E0003200081EF0040F0CBFEFF339
:1002F0000880EFF309807146134A10472DE9F04159
:1003000082B004468846084B5E6B9F6B9D6A074827
:1003100000F05EF8CDF800803B4632462946204684
:1003200000F0B2F800BEFEE700ED00E00C3200087D
:1003300000BEFEE700BEFEE700BEFEE7704700001D
:100340003F020008B5020008FD02000800BEFEE7FB
:10035000E834000800000020D0000020E834000845
:100360000000000000000000D0000020000200207B
:08037000000000000000000085
:10037800FEE7000008B503460C4A12685AB10B4A5A
:100388001068033323F003030344094A934206D851
:10039800064A136008BD054A06491160EFE702F0F6
:1003A80001FA0C2303604FF0FF30F3E7D40000207C
:1003B800004C00200002002001230360014B0B6069
:1003C800704700BF040000200FB400B583B004AB31
:1003D80053F8042B01938021064802F02FFB0028D4
:1003E80003DD0146034800F037F803B05DF804EB7D
:1003F80004B07047DC0000202DE9F04385B00446C6
:100408000F4643560BB10E461EE0042528462146EA
:10041800ABBE0446384605B0BDE8F08314F9011BAD
:1004280004AA1A4402F8101C0133AB42F6D304AAFA
:100438001344002203F8102C4FF00408E946404604
:100448004946ABBE8046761B002EE3D03546102EBB
:1004580028BF10250023E8E708B5FFF7CDFF08BD42
:1004680008B500F0FDF8024A024B9A6008BD00BFCB
:100478000000000800ED00E008B500F019F908BD1B
:10048800F8B504460D4617461E462748FFF79CFF59
:1004980021682648FFF798FF61682548FFF794FF11
:1004A800A1682448FFF790FFE1682348FFF78CFF15
:1004B80021692248FFF788FF61692148FFF784FF17
:1004C800A1692048FFF780FFE1691F48FFF77CFF1B
:1004D8001E48FFF779FF29461D48FFF775FF1D4C99
:1004E800E16A1D48FFF770FF216B1C48FFF76CFF9E
:1004F800E16B1B48FFF768FF15F0800F0AD115F470
:10050800004F0CD11748FFF75FFF06991648FFF711
:100518005BFFF8BD39461548FFF756FFEFE7314650
:100528001348FFF751FFEDE7D4300008E430000826
:10053800F4300008043100081431000824310008A0
:10054800343100084431000854310008643100088F
:100558007031000800ED00E080310008903100089B
:10056800A0310008D0310008D8310008B0310008A7
:10057800C031000883691A888A4201D00020704778
:100588000268033A012A03D80233836101207047C5
:100598000020704782B00023019300932C4A13680F
:1005A80043F4803313602A4B1B6803F40033009331
:1005B800019B01330193009B1BB9019BB3F5A06F0D
:1005C800F1D1234B1B6813F4003F06D0012300939D
:1005D800009B012B04D002B0704700230093F7E77B
:1005E8001C4B1A6842F010021A601A6822F00302C3
:1005F8001A601A6842F002021A60A3F580535A681A
:100608005A605A685A605A6842F480625A605A6856
:1006180022F47C125A605A6842F4E8125A601A6846
:1006280042F080721A600A4B1B6813F0007FFAD000
:10063800074B5A6822F003025A605A6842F00202D5
:100648005A60034B5B6803F00C03082BF9D1C2E72F
:10065800001002400020024008B5FFF79BFF08BDCC
:1006680008B5104B1A6842F001021A6059680E4A20
:100678000A405A601A6822F0847222F480321A60A2
:100688001A6822F480221A605A6822F4FE025A601C
:100698004FF41F029A60FFF7DFFF044B4FF0006230
:1006A8009A6008BD001002400000FFF800ED00E06D
:1006B8001F4B5B6803F00C03042B15D0082B17D0D5
:1006C8001BB11C4B1C4A1A6002E01A4B1A4A1A60EA
:1006D800174B5B68C3F30313184AD35CDAB21549A6
:1006E8000B68D3400B607047124B134A1A60EFE750
:1006F8000F4A53685268C3F38343023312F4803FAE
:100708000AD00B4A526812F4003F0BD00C4A02FB85
:1007180003F3084A1360DBE7094A02FB03F3054ABF
:100728001360D5E7044A02FB03F3024A1360CFE7DC
:10073800001002401C00002000127A000C0000206B
:1007480000093D0070B504460D46811CC9B202205F
:1007580001F054F908222946204600F0DBFE012268
:100768002946204600F054FF064B187800EB40025B
:10077800054903268E54054A1454054A1554421C4B
:100788001A7070BD5C010020BC010020AC01002083
:10079800B40100202DE9F04100241EE004EB4402DE
:1007A800264B13445B78B3B9A8B904EB4408234B30
:1007B800002203F808200EE068B904EB44081F4B38
:1007C800012203F8082006E004EB44021B4B134403
:1007D8005B78012B1ED00134E4B2042C2CD8174FBF
:1007E80004EB4406BD19AB786B70154B195D154BBE
:1007F800185D00F04DFFA870BB5D032BEBD801A27C
:1008080052F823F0C1070008D10700082F08000894
:10081800A50700080128DED104EB4408074B022293
:1008280003F80820D7E70128D5D104EB4408034B87
:10083800032203F80820CEE7BDE8F081BC010020C0
:10084800B4010020AC01002000EB4000014B185C13
:10085800704700BFBC01002070B4654B1B78012BAA
:100868002ED043B1022B4AD00A2B00F29180033BD1
:10087800DBB2002088E05F4B18785F4BA3FB0020B9
:10088800C0085E4A1178A3FB0131C908012303FAA5
:1008980001F212B25A4D35F81040144324B21944EB
:1008A8008B401BB244EA030125F81010013035F8DB
:1008B80010100A4312B2134325F8103070BC704769
:1008C8004C4B18784C4BA3FB0020C0084B4A1278BD
:1008D800A3FB0232D208012101FA02F3484D35F890
:1008E800104023431BB2541801FA04F423431BB2EB
:1008F800023201FA02F2134325F81030DEE73D4BCD
:100908001B783D49A1FB0323DB083C4A1278A1FB75
:100918000212D10801228A4012B2394931F8130073
:10092800104321F813005C1C31F81400104321F81F
:100938001400023331F81300024321F81320BDE7F5
:100948000132D2B2022A1DD82E4901EB4301095CBB
:10095800114111F0010FF3D026490978264DA5FB66
:10096800014102EBD101254C2478A5FB045400EB8E
:10097800D4050124AC40224D35F81160344325F8E4
:100988001140DDE70130C0B2012897D80022D9E72D
:10099800122B93D80B3BDBB2002124E00132D2B2F8
:1009A800012A1ED803EB430417482044405C104139
:1009B80010F0010FF2D00F4800780F4DA5FB004052
:1009C80002EBD0000D4C2478A5FB045401EBD405B0
:1009D8000124AC400A4D35F81060344325F8104026
:1009E800DCE70131C9B202293FF668AF0022D7E738
:1009F8005D0100205F010020CDCCCCCC5E01002041
:100A0800600100202C0000203C000020634B1B7874
:100A1800012B2BD053B1022B3ED030B40A2B00F25D
:100A28008380033BDBB2002201205CE05C4B1A7838
:100A38005C48A0FB0232D2085B4B33F812105B4BC8
:100A48001B78A0FB0303DB080233194111F0010FE7
:100A580040F095800132544931F8122042FA03F3EC
:100A680013F0010F40F08D80012070474C4B1A782D
:100A78004C49A1FB0232D2084B4B33F812204B4BA6
:100A88001B78A1FB0313DB08033342FA03F313F0CB
:100A9800010F78D101207047414B1A784148A0FBDB
:100AA8000232D208404B33F81210404B1B78A0FB9F
:100AB8000303DB080133194111F0010F65D1511C03
:100AC800394830F81110194111F0010F5FD1023285
:100AD80030F8122042FA03F313F0010F59D1012024
:100AE80070470132D2B2022A56D8314901EB43018C
:100AF8004978114111F0010FF3D029490C78294D9B
:100B0800A5FB041402EBD404274931F81440274903
:100B18000978A5FB0151C908023144FA01F111F025
:100B2800010FDED00020DCE7122B34D80B3BDBB200
:100B38000022012001E00132D2B2012A2CD803EBB5
:100B480043041C4921448978114111F0010FF2D066
:100B580013490C78134DA5FB041402EBD404124975
:100B680031F8144011490978A5FB0151C90803312E
:100B780044FA01F111F0010FDDD00020DBE700207D
:100B88007047002070470020704700207047002001
:100B9800704700207047012030BC70475D0100207D
:100BA8005F010020CDCCCCCC600100205E0100208C
:100BB8002C0000203C000020634B1B78012B2BD01D
:100BC80053B1022B3ED030B40A2B00F28380033B92
:100BD800DBB2002201205CE05C4B1A785C48A0FB89
:100BE8000232D2085B4B33F812105B4B1B78A0FB28
:100BF8000303DB08013B194111F0010F40F0958018
:100C08000132544931F8122042FA03F313F0010F6C
:100C180040F08D80012070474C4B1A784C49A1FB5D
:100C28000232D2084B4B33F812204B4B1B78A1FBF6
:100C38000313DB08013B42FA03F313F0010F78D1E9
:100C480001207047414B1A784148A0FB0232D20874
:100C5800404B33F81210404B1B78A0FB0303DB0812
:100C6800013B194111F0010F65D1511C394830F889
:100C78001110194111F0010F5FD1023230F8122022
:100C880042FA03F313F0010F59D1012070470132E2
:100C9800D2B2022A56D8314901EB430149781141B1
:100CA80011F0010FF3D029490C78294DA5FB041444
:100CB80002EBD404274931F8144027490978A5FBE9
:100CC8000151C908013944FA01F111F0010FDED0D0
:100CD8000020DCE7122B34D80B3BDBB200220120CA
:100CE80001E00132D2B2012A2CD803EB43041C499B
:100CF80021448978114111F0010FF2D013490C7881
:100D0800134DA5FB041402EBD404124931F8144026
:100D180011490978A5FB0151C908013944FA01F1C3
:100D280011F0010FDDD00020DBE700207047002024
:100D3800704700207047002070470020704700204F
:100D48007047012030BC70475D0100205F01002022
:100D5800CDCCCCCC600100205E0100202C0000200E
:100D68003C0000202DE9F04383B00E461746984614
:100D78000A282FD8C51EEDB24FF0000925E001342E
:100D8800E4B2022C1DD82F4B03EB450313F80930AE
:100D9800234113F0010FF2D009EB8902530098198F
:100DA80080B204EB84025300D91989B201310130B1
:100DB800CDF8008008231A4689B280B201F0E9FA1A
:100DC800DDE709F101095FFA89F9B9F1010F35D8B1
:100DD8000024D6E7122831D8A0F10B05EDB24FF068
:100DE800000926E00134E4B2012C1ED805EB4502C7
:100DF800154B134413F80930234113F0010FF1D0B8
:100E080009EB89025300981980B204EB840253005D
:100E1800D91989B201310130CDF8008008231A466A
:100E280089B280B201F0B5FADCE709F101095FFA8D
:100E380089F9B9F1020F01D80024D5E703B0BDE85C
:100E4800F08300BF2C0000203C00002070B582B069
:100E58000446394B1878012832D048B102284DD0C1
:100E68002346364A127836490978FFF77BFF25E092
:100E7800324E3178324D2878009408231A460131D1
:100E8800013001F086FA31782878009408231A4650
:100E98000B31013001F07DFA31782878009408236D
:100EA8001A4601310B3001F074FA31782878009431
:100EB80008231A460B310B3001F06BFA02B070BDF3
:100EC8001E4E31781E4D2878009408231A460131A9
:100ED800013001F05EFA31782878009408231A4628
:100EE80001310B3001F055FA317828780094082345
:100EF8001A460131153001F04CFADFE70F4E317810
:100F08000F4D2878009408231A460131013001F06A
:100F180040FA31782878009408231A460B310130BA
:100F280001F037FA31782878009408231A461531E9
:100F3800013001F02EFAC1E75D0100205F010020B9
:100F48005E01002010B50E4B14221A7008E001F063
:100F5800E5FC0B4C207001F0E1FC2378184420706C
:100F6800074B1B78122BF2D8064B36221A70064B09
:100F780000221A7048F6FF60FFF768FF10BD00BF37
:100F88005D0100205E0100205F010020F8B58B4B59
:100F98001B78012B26D04BB1022B45D00A2B00F22F
:100FA800B380033BDBB200200546A2E0844B1978EE
:100FB80001F11400834B1B78834AA2FB0323DB084F
:100FC800824AD25C904204D05A1C804CA25C904267
:100FD80038D17E4AD1540133D154FFF73DFCFFF795
:100FE800B1FF2FE0764B197801F10A00754B1B7899
:100FF800754AA2FB0323DB08744AD25C904208D0EE
:101008005A1C724CA25C904203D09A1CA25C90427B
:1010180018D16E4AD154581C11540233D154FFF7D9
:101028001BFCFFF78FFF0DE0654B1A7802F11E00DD
:10103800644B1B786449A1FB0313DB086349C95C53
:10104800884200D0F8BD6149CA54FFF705FCFFF794
:1010580079FFF7E715F0020F18D08C4407F10A055D
:10106800DFF868E10EF80C500134E4B2012C18D80E
:10107800A446574D05EB46052D5D15F0010FE9D047
:101088000D19DFF848C10CF80570EDE715F0040FED
:10109800EAD08C4407F11405DFF830E10EF80C5063
:1010A800E2E701250132D2B2022A20D81E46484979
:1010B80001EB4301095C114111F0010FF2D04049E5
:1010C8000F78511C01EB81014C003C443D490978E3
:1010D800DFF8F4C0ACFB01C1C90800EB010CDFF874
:1010E800ECE01EF80CC06445DCD10024BEE70130FA
:1010F800C0B2012801D80022D6E7002DA2D0FFF700
:10110800ABFBFFF71FFF9DE7122B9BD80B3BDBB216
:101118000024264645E016F0020F06D0864407F163
:101128000A06DFF8A8C00CF80E600131C9B202291E
:101138000ED88E4605EB450C264E6644765C16F0B6
:10114800010FE8D04618DFF884C00CF80670ECE709
:1011580001260132D2B2012A21D81D4603EB4300F1
:101168001C490144095D114111F0010FF1D01449E6
:101178000F78511C01EB810148003918114800789B
:10118800DFF844C0ACFB00C0C00804EB000CDFF87B
:101198003CE01EF80CC06145DBD10021C7E70134F3
:1011A800E4B2022C01D80022D5E7002E3FF44AAF62
:1011B800FFF752FBFFF7C6FE44E700BF5D010020C2
:1011C8005F0100205E010020CDCCCCCC20000020A7
:1011D8002C0000203C00002008B50020FFF736FE58
:1011E800044A13780A33137048F6FF60FFF72EFE9F
:1011F80008BD00BF5F01002008B50020FFF726FEEC
:10120800054A13780A33137048F6FF60FFF71EFE8D
:10121800FFF7BCFE08BD00BF5F01002008B5002035
:10122800FFF714FE174B1B78022B10D8012B06D0A2
:10123800022B08D048F6FF60FFF708FE08BD114BE7
:1012480002221A70F6E70F4B01221A70F2E70A2BF6
:101258000AD813F0010F03D008330A4A1370E9E7DC
:10126800013B084A1370E5E7122BE3D813F0010F8E
:1012780003D1083B034A1370DCE70133014A1370BA
:10128800D8E700BF5D01002070B582B00F25002DA2
:101298004ED02946274B33F8152040F6FF739A4263
:1012A80002D0013DEDB2F2E7013101EB81014B00C3
:1012B8009BB2002100917822042001F06AF81EE018
:1012C8000134E4B20B2C18D81A4B33F816302341EA
:1012D80013F0010FF4D005EB85035900013104EB3D
:1012E80084035800053048F6FF63009308231A4624
:1012F80089B280B201F04DF8E2E7013DEDB24DB19F
:101308002E466B1E0B4A32F8133022F815300BB1FB
:101318000024D7E7002301E00133DBB20B2B07D809
:10132800054AD25CA02AF7D00A320349CA54F3E727
:1013380002B070BD600100202000002008B5002028
:1013480000F006FB00230C4A13700C4A13700C4A79
:10135800137004E00B4AA021D1540133DBB20B2BEC
:10136800F8D9002305E0084A002122F813100133B8
:10137800DBB20F2BF7D908BD5E0100205F0100200A
:101388005D010020200000206001002010B52B4BDB
:101398001B78DBB2022B0FD0294B1B78DBB2022B58
:1013A80019D0284B1B78DBB2022B17D0264B1B78A1
:1013B800DBB2022B3FD010BD0020FFF747FD234BC7
:1013C8001C78042CF7D0FFF7F7FB0028F3D00A3C71
:1013D8001E4B1C70EFE7FFF70FFFECE70020FFF74D
:1013E80035FD1B4B1B78012B16D043B1022B18D0AF
:1013F8000A2B1BD8154B1B78682B04D1DBE7134B42
:101408001B78682BD7D0FFF701FB0028D3D00F4AF1
:1014180013780A331370CEE70C4B1B785E2BF2D18E
:10142800C9E70A4B1B78722BEDD1C4E7074B1B7831
:101438005E2BE8D1BFE7FFF7F1FEBCE760000020B4
:101448005F00002062000020630000205E01002091
:101458005D01002010B582B0002000F0B6FF4FF605
:10146800C0740094A02304220021084600F091FFD4
:101478000094A023042200217C2000F08AFF02B0FF
:1014880010BD000008B5FFF7E5FF054B4FF4967255
:101498000021084600F046FAFFF754FD08BD00BFDA
:1014A8000915000800230B2B23D8124A92881A41E9
:1014B80012F0010F02D10133DBB2F4E730B583B08B
:1014C800FFF7C8FF002501954FF4784400940323E3
:1014D80032221E21084800F0D7FF0195009403230B
:1014E80050221E21054800F0CFFFFFF727FF03B069
:1014F80030BD7047600100201C320008243200080B
:1015080008B5FFF769FEFFF741FDFFF7BDFEFFF7DE
:10151800C9FF08BD10B4012827D018B1022847D048
:1015280010BC7047072912D90F29F9D8A1F108046E
:10153800E4B2314B1968A4000F20A04021EA000151
:101548001960186802FA04F101431960E8E72B4BA7
:10155800186889000F248C4020EA04001860186875
:1015680002FA01F101431960DAE7072912D90F29B4
:10157800D6D8A1F10800C0B2214B196880000F2409
:10158800844021EA040119601C6802FA00F1214331
:101598001960C5E71B4B186889000F248C4020EAA6
:1015A80004001860186802FA01F101431960B7E7EE
:1015B800072912D90F29B3D8A1F10803DBB21248C1
:1015C80001689B000F249C4021EA04010160046823
:1015D80002FA03F121430160A2E70C4B1868890065
:1015E8000F248C4020EA04001860186802FA01F100
:1015F8000143196094E700BF040801400008014056
:10160800040C0140000C014004100140001001408E
:10161800012812D010B102281ED07047012A06D026
:1016280012BB012303FA01F1134B19607047012320
:1016380003FA01F1114B19607047012A06D09AB9D3
:10164800012303FA01F10E4B19607047012303FAD5
:1016580001F10C4B19607047012A06D022B9012309
:1016680003FA01F1084B19607047012303FA01F1ED
:10167800064B1960704700BF14080140100801406C
:10168800140C0140100C01401410014010100140CE
:1016980001280AD018B102280DD000207047094B44
:1016A8001868C84000F001007047074B1868C84028
:1016B80000F001007047054B1868C84000F00100B1
:1016C800704700BF08080140080C0140081001409D
:1016D80038B505460C46082001F06AF80023436037
:1016E80005EB4505AB000633037004EB4404A30087
:1016F80014334370064B1B6823B1064B1A685060BD
:10170800186038BD024B1860024B1860F9E700BF3B
:101718008001002084010020014B1868704700BF39
:101728008001002070B5314B1B685B680AE000EB54
:101738004004A20006321A7001EB4104A2001432E0
:101748005A705B683BB15A68002AF0D014781C7054
:1017580052785A70F5E7264B1B681A88234B1B688A
:101768001B889A4201D0002070BD00260C24254613
:1017780023E001F0D3F81F4B83FB0023C417C4EB0D
:10178800A304E4B20A2CF4D8184B1868426801E0A4
:101798005268002682B105EB45018B0006331178AB
:1017A8008B42F5D104EB44018B00143351788B4202
:1017B800EED101260C2425465EB1082DE2D901F0B0
:1017C800ADF80C4B83FB0023C517C5EBA305EDB2A1
:1017D800F3E705EB4505AB000633037004EB44045F
:1017E800A300143343700120BEE700BF800100202E
:1017F8008401002067666666084B1B685B680020EA
:1018080000E05B68064A12689A4205D011881A8877
:101818009142F6D10120F4E7704700BF8001002013
:101828008401002010B5064B1C6803E0204600F038
:10183800C7FF6468002CF9D1014B00221A6010BD63
:10184800800100200023022B35D810B40AE003EBF6
:101858004301880018490144013A8A800133DBB208
:10186800022B26D803EB43029000134A02449268E5
:10187800002AF3D003EB430082000F48825C002A61
:10188800ECD103EB430290000B4A02449288002AF1
:10189800DDD1580018448400074A224450780130AA
:1018A80050705288002AD9D0013A034921448A80CD
:1018B800D4E710BC70477047CC01002030BF704798
:1018C80008B500F0CFF9034A0021012000F00EFA14
:1018D80008BD00BF4D18000838B5002401E00134E8
:1018E800E4B2022C19D804EB44039A000C4B1344BD
:1018F8009A68002AF3D004EB44039900084B0B4480
:101908005B78002BEBD090470549630018198200DB
:101918000A445378013B5370E1E7FFF7CFFF38BD26
:10192800CC01002002280ED8F0B4084C45002F182E
:10193800BE00A719B9807A80BB600023A3557B70CD
:101948000120F0BC70470020704700BFCC01002088
:1019580000EB40039A000B4B13449B6883B110B40F
:10196800084942001418A3000B4400249C805C80A2
:101978009C601044830019444C70012010BC7047CF
:1019880000207047CC0100201A4A136843F48033C2
:101998001360184B1B6813F4003FFAD0154A1368FC
:1019A80023F480231360144B196821F00201196095
:1019B800196841F001011960196821F08061196006
:1019C800116821F4002111601A6822F480421A601B
:1019D8001A6822F400421A601A6822F400521A6047
:1019E8001A6822F480621A601A6822F080021A606B
:1019F800704700BF00100240041002401F291CD885
:101A080001280BD010B1022810D070470B4803688A
:101A1800012202FA01F1194301607047084803687E
:101A2800012202FA01F11943016070470548036871
:101A3800012202FA01F119430160704714100240B3
:101A48001C1002401810024030B4694B53F8203083
:101A580000221A604B78002B77D0012B7ED1644B83
:101A680053F82020136843F00203136000238A7898
:101A7800002A75D0012A7BD15D4A52F8204022689D
:101A880042F001022260CA78002A73D0012A79D173
:101A9800574A52F82040226842F0800222600A79B0
:101AA800002A71D0012A77D1514A52F82040226881
:101AB80042F4006222604A79002A6FD0012A75D167
:101AC8004B4C54F820502A6842F400722A6054F8AB
:101AD8002040226842F4807222608A79002A67D006
:101AE800012A6DD1424A52F82040226842F48062AD
:101AF8002260CA79072A65D83D4C54F820502C68D2
:101B080044EAC2022A600A7A002A5DD0012A63D117
:101B1800374A52F82040626842F0400262600A7810
:101B2800002A5BD0012A61D1314A52F820100A6894
:101B380042F004020A602E4A52F820100A6842F065
:101B480040020A60184630BC7047294B53F82020E1
:101B5800136823F002031360002388E7012386E754
:101B6800234A52F82040226822F0010222608AE7C4
:101B7800012388E71E4A52F82040226822F080029A
:101B880022608CE701238AE7194A52F8204022682C
:101B980022F4006222608EE701238CE7144A52F88F
:101BA8002040226822F40072226096E7012394E71D
:101BB8000F4A52F82040226822F48062226098E797
:101BC800012396E701239EE7094A52F820406268FC
:101BD80022F040026260A2E70123A0E7044A52F81B
:101BE80020100A6822F004020A60A4E70123A2E791
:101BF8005400002010B40446074B53F82030D96035
:101C0800054B53F824309A6812F0800FF8D1D86841
:101C180080B210BC704700BF5400002008B5064BC6
:101C28001B689A6822F001029A60D868034B1B6807
:101C380080B2984708BD00BF54000020F001002082
:101C480008B5064A51688B6823F001038B60136856
:101C5800D868034B5B6880B2984708BD54000020E1
:101C6800F0010020044A136823F004031360034BB7
:101C7800034A1A60704700BF10E000E08C010020A2
:101C880040420F00154B00229A6089B101291AD0F1
:101C9800124A136843F001031360104B1B6813F4D6
:101CA800803FFAD00D4A136823F001031360704790
:101CB8000B4B1B680B4AA2FB03239B0900FB03F099
:101CC800064B5860E4E7064B1B68074AA2FB032350
:101CD8009B0C00FB03F0014B5860D9E710E000E0D3
:101CE8008C010020D34D621083DE1B4310B4144BCB
:101CF80000249C6071B1012917D0124B1A60104B57
:101D08001A6842F001021A601A6842F002021A6068
:101D180010BC70470C4B1B680C49A1FB03139B09B3
:101D280000FB03F0064B5860E7E7074B1B680849C0
:101D3800A1FB03139B0C00FB03F0014B5860DCE78D
:101D480010E000E0F80100208C010020D34D621063
:101D580083DE1B4308B5084B1B7843B1074B1A6851
:101D680022F001021A601A6822F002021A60044B7B
:101D78001B68984708BD00BF8801002010E000E0FC
:101D8800F80100201D4B1B78DBB2032B34D8DFE8A9
:101D980003F0271B0F021A4A13780133DBB21370C2
:101DA8001378DBB20A2B27D9134600221A70704722
:101DB800134B1B7813B9124B0B221A70104A137865
:101DC800013BDBB2137070470E4B1B7813B90D4BF8
:101DD80009221A700B4A1378013BDBB21370704763
:101DE800084A13780133DBB213701378DBB2082B7F
:101DF80002D9134600221A70704700BF90010020D4
:101E0800920100205C00002000B585B03C4B18789A
:101E18003C4B1978FFF786FC00284CD03A4B1B78CE
:101E2800DBB2032B1FD0384B1B78DBB2022B45D01B
:101E3800354B1B78DBB2012B51D0334B1B7823BBBE
:101E48002F4A13780133DBB213701378DBB2082BF7
:101E580002D9134600221A70294B1878294B197891
:101E6800FFF736FC11E0274A13780133DBB2137011
:101E78001378DBB20A2B02D9134600221A70204BC2
:101E88001878204B1978FFF723FC204B1A78013279
:101E9800D2B21A701E4903A800F084FD46F2A103CD
:101EA80001934FF6FF730093022300220C210DEBE0
:101EB800010000F0E9FA05B05DF804FB114B1B784E
:101EC80013B9104B0B221A700E4A1378013BDBB280
:101ED80013700B4B18781178FFF7FAFBD5E7084B0E
:101EE8001B7813B9064B09221A70054A1378013B6F
:101EF800DBB213701078034B1978FFF7E9FBC4E7DE
:101F08005C00002092010020900100209101002037
:101F18003032000870B584B0FFF76EFC08B904B021
:101F280070BD40F2F37000F050FA46F2A106009638
:101F380012237F220021084600F02BFA4AF661049A
:101F480000949F2304220021084600F022FA0094FE
:101F58009F23042200217B2000F01BFA0094082311
:101F68007F229B21002000F014FA204D2A78204976
:101F780003A800F017FD01964FF6FF7300930223A4
:101F880000220C210DEB010000F07EFA4FF478439B
:101F980000930C231A4603212D2000F0FAF940F291
:101FA800F376019600240094032332221E2111485F
:101FB80000F06AFA01960094032350221E210E486D
:101FC80000F062FA2046FFF7C3FCFFF72BFC0B4B2F
:101FD80001221A700A4B1C700A4B1C700A4B06220D
:101FE8001A700A4B12221A702C7098E7910100207F
:101FF8003032000838320008403200085C00002007
:1020080092010020900100205D0000205E00002069
:1020180010B582B01A4C2368597818784FF4784371
:1020280000930C231A4600F0B4F9164B1978164B96
:10203800187840F2F37300930C231A4600F0A9F9BC
:1020480023685C6809E0617820784FF2DF13009319
:102058000C231A4600F09DF96468002CF3D1084B54
:102068001B685B681978084A11705A78054B1A7012
:10207800FFF788FEFFF7C8FEFFF74CFF02B010BD60
:10208800940100205E0000205D00002030B583B080
:1020980040F2F37000F099F946F2A1050095122379
:1020A8007F220021084600F074F94AF66104009482
:1020B8009F2304220021084600F06BF900949F2317
:1020C800042200217B2000F064F9009408237F2279
:1020D8009B21002000F05DF901954FF6FF730093F6
:1020E800022300220C21114800F0CEF94FF4784366
:1020F80000930C231A4603212D2000F04AF90521EC
:102108000846FFF7E5FA0A4D28780A4C2178013885
:10211800C0B2FFF7DDFA28782178FFF7D9FAFFF780
:10212800FBFA054B186003B030BD00BF2C32000825
:102138005C000020920100209401002008B5FFF700
:10214800A5FF044B4FF4C87200210846FFF7EAFBCD
:1021580008BD00BF1920000808B50020FFF7F8FBEC
:10216800FFF760FB084B01221A700023074A13701F
:10217800074A1370074A06211170074A1221117085
:10218800064A137008BD00BF5C00002092010020C1
:10219800900100205D0000205E00002091010020D9
:1021A8001B4B1B78DBB2022B0FD01A4B1B78DBB210
:1021B800022B13D0184B1B78DBB2022B17D0174B0E
:1021C8001B78DBB2022B1BD07047154B1B78DBB298
:1021D800032BEAD0124B02221A707047104B1B785F
:1021E800DBB2022BE6D00E4B03221A7070470C4B61
:1021F8001B78DBB2012BE2D0094B00221A70704722
:10220800074B1B78002BDFD0054B01221A70DBE748
:10221800630000205F0000206200002060000020B2
:102228009001002010B50446012211460020FFF756
:10223800EFF9002203211046FFF7EAF921460020B2
:10224800FFF7D8FC012203210020FFF7E1F910BDB8
:1022580010B5C4B2000AFFF7E5FF2046FFF7E2FF1A
:1022680010BD10B50446002201211046FFF7D0F931
:10227800002203211046FFF7CBF921460020FFF783
:10228800B9FC012203210020FFF7C2F910BD7E2806
:1022980001D89E2A00D97047F8B51E4615460F4644
:1022A80004462A20FFF7DDFF200AFFF7BBFFE0B254
:1022B800FFF7B8FF380AFFF7B5FFF8B2FFF7B2FF2C
:1022C8002B20FFF7CEFF280AFFF7ACFFE8B2FFF795
:1022D800A9FF300AFFF7A6FFF0B2FFF7A3FF2C20F3
:1022E800FFF7BFFFF8BD7E2801D89E2900D97047A7
:1022F80010B514460A464B1C411C9BB289B2FFF725
:10230800C6FF2046FFF7A4FF10BD08B50122032130
:102318000020FFF7FFF8012202210020FFF778F9DB
:1023280001216420FFF7AEFC002202211046FFF7CE
:102338006FF901210220FFF7A5FC012202210020EC
:10234800FFF766F901216420FFF79CFC00220221B7
:102358001046FFF75DF901216420FFF793FC012285
:1023680002210020FFF754F900217820FFF78AFCAA
:102378001120FFF776FF00219620FFF783FC3A2013
:10238800FFF76FFF0520FFF74DFF2920FFF769FFD3
:1023980008BDF8B516461D46BDF818708418A4B2D5
:1023A800013CCB189BB2013B9BB20A46A1B2FFF796
:1023B8006EFF002404E03846FFF74AFF0134A4B258
:1023C80005FB06F39C42F6DBF8BD00B583B0009030
:1023D800A023802200210846FFF7DBFF03B05DF849
:1023E80004FB00002DE9F04F83B0884691469A46D9
:1023F800BDF830B01F2812DDC6B2203EF6B21FFA73
:102408008AF707EB47035A0092B2BDF834300093BD
:10241800FB0049464046FFF7BCFF00252AE000269E
:10242800EDE709EB040108EB05005A4689B280B2D2
:10243800FFF759FF0134E4B2072C19D806EB46031D
:102448005A00104B13445B5D234113F0010FF1D088
:10245800BAF1010FE5D005FB078004FB0791CDF821
:1024680000B03B463A4689B280B2FFF792FFE1E7F7
:102478000135EDB2052D01D80024DDE703B0BDE834
:10248800F08F00BF483200082DE9F04383B00446BE
:10249800894690461D46BDF82870BDF82C600DE0B1
:1024A800019600972B4642464946FFF79BFF05EBEE
:1024B8004503590049441FFA81F9013494F9000091
:1024C8000028EDD103B0BDE8F083000000B585B069
:1024D800FFF75AFA02210846FFF790FA0C2102206A
:1024E800FFF78CFA092207210020FFF713F80422CE
:1024F80006210020FFF70EF8092205210020FFF72A
:1025080009F8012211460020FFF704F801220221F0
:102518000020FEF7FFFFFFF7A5FB164A01AB07CA2D
:1025280003C31A7001A90020FFF78EFAFFF7EDFE2A
:1025380006210120FEF706F90F4B1870072101202C
:10254800FEF700F90D4B187008210120FEF7FAF884
:102558000B4B187005210120FEF7F4F8094B187091
:1025680009210120FEF7EEF8074B187005B05DF859
:1025780004FB00BF88340008990100209C0100205A
:102588009A0100209D0100209B01002030B583B0F6
:102598000020FFF71AFF002401944FF478430093BA
:1025A8000323142211461048FFF76EFF019443F6E7
:1025B800DF15009502233C221E210C48FFF764FF1B
:1025C80001940095022350221E210948FFF75CFF61
:1025D800019441F22743009302233C220A21054833
:1025E800FFF752FF03B030BD98340008A03400084C
:1025F800A8340008B034000808B5FFF767FFFFF7F4
:10260800C5FF054B0A2200210120FFF78BF9FFF7D0
:1026180057F9FFF761F9FCE7ED26000830B583B0FC
:10262800294B1B78DBB2022B0BD0284B1B78DBB273
:10263800022B06D0264B1B78DBB2022B33D003B01B
:1026480030BD244B1B78BBB1012BF3D1002401947E
:1026580041F227450095022350220A211E48FFF720
:1026680013FF0194009502233C220A211B48FFF71F
:102678000BFF184B1C70DDE70025019541F227443C
:10268800009402233C220A211348FFF7FDFE01951E
:102698000094022350220A211048FFF7F5FE0D4B43
:1026A80001221A70C6E70B4B1B783BB1012BC6D130
:1026B800FEF7E8FE0A4B01221A70C0E7FFF73EFD5D
:1026C800074B00221A70BAE7630000205F00002061
:1026D800610000209801002094340008B0340008FC
:1026E8006400002008B5FEF755F8234B1878FEF76C
:1026F800ABF8224B1870224B1878FEF7A5F8214B3F
:102708001870214B1878FEF79FF8204B1870204B53
:102718001878FEF799F81F4B18701F4B1878FEF7BA
:1027280093F81E4B18701E4B1B78012B12D013B157
:10273800022B1ED008BDFFF733FD184B1B78DBB208
:10274800022BF7D1FFF708FDFFF720FF144B0222F9
:102758001A70EFE7FEF71AFE104B1B78DBB2022B5C
:10276800E8D1FEF7EBFDFFF711FF0D4B02221A70BF
:10277800E0E7FFF753FFDDE7990100205F00002045
:102788009C010020620000209A01002060000020C7
:102798009D010020630000209B01002061000020B3
:1027A80064000020014B1868704700BF68000020D3
:1027B800024B0146186800F057B800BF68000020B7
:1027C800024B0146186800F003B800BF68000020FB
:1027D80038B50546002943D051F8043C0C1F002B9E
:1027E800B8BFE41800F038F91E4A1368104633B928
:1027F800636014602846BDE8384000F02EB9A34253
:102808000BD921686218934201BF1A685B68521895
:10281800226063600460EDE713465A680AB1A24279
:10282800FAD919685818A0420BD1206801445818E1
:1028380082421960DED110685268014419605A60FA
:10284800D8E702D90C232B60D4E7206821188A42E4
:1028580001BF116852680918216062605C60C9E7AD
:1028680038BD00BFA001002070B5CD1C25F00305C0
:1028780008350C2D38BF0C25002D064601DBA94272
:1028880003D90C233360002070BD00F0E5F8214A1D
:102898001468214691B9204C23681BB9304600F0D2
:1028A80071F820602946304600F06CF8431C24D1AA
:1028B8000C233046336000F0D0F8E4E70B685B1B6C
:1028C80018D40B2B0FD90B60CC18CD50304600F024
:1028D800C4F804F10B00231D20F00700C31AD3D05D
:1028E8005A42E250D0E74B688C4216BF63601360CF
:1028F8000C46EBE70C464968CCE7C41C24F00304FB
:10290800A04205D0211A304600F03CF80130CFD063
:102918002560DBE7A0010020A401002038B5134B97
:102928001C68A36B7BB91820FFF742FF104A114BB4
:10293800A063C0E90023104B012283600B2383812D
:102948000023C0E90423A16B0C480A694B69504372
:102958000B4C04FB0300A2FB04230344541C43F167
:102968000005C1E9044525F0004038BD6800002095
:102978000E33CDAB34126DE6ECDE05002DF4515864
:102988002D7F954C38B50023054C05460846236035
:10299800FDF7F0FC431C02D1236803B12B6038BD5E
:1029A800A80100200EB46FF0004100B59CB01DAB2B
:1029B80002900690079104910848094953F8042B9E
:1029C8000591006802A9019300F0A2F80022029B79
:1029D8001A701CB05DF804EB03B070476800002063
:1029E8000802FFFF30B5141E05469BB0184605DAED
:1029F8008B234FF0FF302B601BB030BD4FF40273B8
:102A0800ADF80C300CBF234604F1FF330293059355
:102A18004FF6FF7300910491ADF80E3002461E9BED
:102A28006946284600F074F8431CBCBF8B232B6012
:102A3800002CE1D00022009B1A70DDE707B5009357
:102A480013460A46014603480068FFF7CBFF03B068
:102A58005DF804FB68000020704770472DE9F047D7
:102A68008E6882469E420C469046994637D88A8997
:102A780012F4906F31D00223256809696F1A6569CD
:102A880005EB450595FBF3F509F101033B449D4230
:102A980038BF1D46530530D52946FFF7E5FE0646E3
:102AA80050B90C234FF0FF30CAF80030A38943F027
:102AB8004003A381BDE8F0873A46216900F0B4FAE3
:102AC800A38923F4906343F08003A38126613E44E5
:102AD80026604E466561ED1BA5604E4500D94E4601
:102AE80032464146206800F0AAFAA36800209B1BE2
:102AF800A36023681E442660DCE72A4600F0B8FA83
:102B080006460028E2D121695046FFF761FEC8E772
:102B18002DE9F04F9DB003938B8980461D060C4626
:102B280016460FD50B696BB94021FFF79DFE206053
:102B3800206128B90C23C8F800304FF0FF30C7E0F7
:102B4800402363610023099320238DF82930302323
:102B58004FF0010B8DF82A3037463D4615F8013BFA
:102B68000BB1252B3ED1B7EB060A0BD053463246A4
:102B780021464046FFF772FF013000F0A480099B10
:102B8800534409933B78002B00F09D8000234FF0BD
:102B9800FF32CDE90523049307938DF853301A9338
:102BA8002F46052217F8011B4F4800F02FFA049B07
:102BB800D0B9D90644BF20228DF853201A0744BF44
:102BC8002B228DF853202A782A2A15D02F46002048
:102BD8000A25079A394611F8013B303B092B4DD994
:102BE800B8B10FE02F46B8E73F4A3D46801A0BFAC6
:102BF80000F018430490D3E7039A111D126803915B
:102C0800002A01DB079204E0524243F002030792D4
:102C180004933B782E2B0CD17B782A2B33D1039B42
:102C280002371A1D1B680392002BB8BF4FF0FF3301
:102C380005932E4D03223978284600F0E7F938B17C
:102C48004023401B03FA00F0049B0137034304931D
:102C58003978062226487E1C8DF8281000F0D6F90F
:102C6800002838D0234B13BB039B073323F00703FB
:102C780008330393099B4B4409936DE705FB023224
:102C880001200F46A6E700230A25194601370593B8
:102C9800384610F8012B303A092A03D9002BC8D03E
:102CA8000591C6E705FB012101230746F0E703ABC1
:102CB80000932246104B04A94046AFF30080B0F1C0
:102CC800FF3F8146D6D1A3895B063FF536AF099809
:102CD8001DB0BDE8F08F03AB00932246064B04A954
:102CE800404600F081F8EAE7B4340008BA34000836
:102CF800BE34000800000000652A00082DE9F047EE
:102D080091461F468A680B6906469342B8BF134628
:102D1800C9F8003091F843200C46DDF8208012B144
:102D28000133C9F800302368990642BFD9F800304A
:102D38000233C9F80030256815F0060507D104F1FB
:102D4800190AE368D9F800209B1AAB4229DC94F8E9
:102D580043302268003318BF012392062ED404F1B1
:102D6800430239463046C047013021D02368E56820
:102D780003F00603042B18BF0025D9F800204FF0F4
:102D8800000908BFAD1AA368226908BF25EAE575DE
:102D98009342C4BF9B1AED181A344D451AD100202E
:102DA80008E00123524639463046C047013003D176
:102DB8004FF0FF30BDE8F0870135C2E73020E11859
:102DC80081F843005A1C94F845102244023382F8D3
:102DD8004310C4E70123224639463046C047013034
:102DE800E6D009F10109D8E72DE9F04301F1430CD8
:102DF8000C46097E85B06E291746064698460C9AF9
:102E080000F0B38022D8632936D00AD8002900F010
:102E1800B980582900F0838004F1420584F84210F3
:102E280032E0642901D06929F6D1206813680506C3
:102E380003F104012AD51B681160002B03DA2D2247
:102E48005B4284F843206F480A2239E0732900F076
:102E58009D8008D86F2920D07029DDD1236843F0E0
:102E68002003236003E0752917D07829D4D178236B
:102E7800654884F8453055E0136804F14205191D8A
:102E88001B68116084F8423001238CE01B6810F045
:102E9800400F116018BF1BB2CFE713682568181DD3
:102EA8001060280601D51B6802E06806FBD51B8860
:102EB8006F2914BF0A2208225248002184F84310BF
:102EC8006568002DA560C0F29580216821F0040195
:102ED8002160002B3DD1002D40F08E806546082AE8
:102EE8000BD12368DB0708D5236962689A42DEBFE5
:102EF800302305F8013C05F1FF35ACEB05032361F0
:102F0800CDF800803B4603AA21463046FFF7F6FE7F
:102F180001304DD14FF0FF3005B0BDE8F08339489E
:102F280084F84510136821681D1D1B6815600A0682
:102F38000BD5CA0744BF41F0200121601BB92268A4
:102F480022F0200222601022B7E74D0648BF9BB24C
:102F5800EFE76546B3FBF2F102FB1133C35C05F8FA
:102F6800013D0B460029F5D1B9E713682568181DFE
:102F78006169106028061B6801D5196002E06A06BD
:102F8800FBD51980002365462361B9E71368191D2D
:102F980011601D6862680021284600F037F808B102
:102FA800401B606063682361002384F84330A7E70F
:102FB80023692A4639463046C0470130AAD02368DB
:102FC8009B0713D4E068039B9842B8BF1846A3E751
:102FD80001234A4639463046C04701309AD0013568
:102FE800E368039A9B1AAB42F2DCEBE7002504F195
:102FF8001909F5E7002BACD1037804F1420584F8F0
:1030080042306CE7C5340008D634000810B5C9B2A0
:1030180002449042034601D1002303E01C780130AA
:103028008C42F6D1184610BD10B5431E0A44914291
:1030380000D110BD11F8014B03F8014FF7E78842A2
:1030480010B501EB020307D8421E99420AD011F8C5
:10305800014B02F8014FF8E78342F5D98118D21ADB
:10306800D34200D110BD13F8014D01F8014DF7E727
:10307800F8B5074614460E4621B9BDE8F840114692
:10308800FFF7F2BB22B9FFF7A3FB25462846F8BD98
:1030980000F014F8A0420FD221463846FFF7E4FBAF
:1030A80005460028F2D031462246FFF7BDFF3146DB
:1030B8003846FFF78DFBE9E73546E7E751F8043C6A
:1030C800181F002BBCBF0B58C0187047537461639E
:1030D8006B206672616D653A0A000000205230204C
:1030E8003D2020253038580A0000000020523120A9
:1030F8003D2020253038580A000000002052322098
:103108003D2020253038580A000000002052332086
:103118003D2020253038580A000000002052313266
:10312800203D20253038580A00000000204C52204D
:103138003D2020253038580A000000002050432048
:103148003D2020253038580A0000000020505352F6
:10315800203D20253038580A000000004653522FE1
:103168004641523A0A0000002043465352203D206F
:1031780020253038580A00002048465352203D2068
:1031880020253038580A00002044465352203D205C
:1031980020253038580A00002041465352203D204F
:1031A80020253038580A0000204D4D464152203D18
:1031B80020253038580A00002042464152203D2040
:1031C80020253038580A00004D6973630A00000052
:1031D800204C522F4558435F52455455524E3D207E
:1031E800253038580A0000005B48617264466175F2
:1031F8006C745D0A000000005B4275734661756C73
:10320800745D0A005B55736167654661756C745D32
:103218000A00000067616D65000000006F76657246
:103228000000000030300000252E32690000000048
:1032380047616D65000000004F56455200000000D0
:103248000000000000005C0000000000060006000E
:103258000000287C287C28005C54FE54740044201C
:1032680010084400285454205000060000000000B4
:103278003844000000004438000000000207020043
:10328800000010107C101000C0000000000010109A
:103298001010100040000000000060100C0000003A
:1032A8007C64544C7C00487C4000000064545454B6
:1032B8004800445454546C003C20702020005C5456
:1032C800545424007C5454547400040464140C00B2
:1032D8007C5454547C005C5454547C0044000000DA
:1032E8000000C40000000000102844000000282846
:1032F800282828004428100000000804540800006A
:103308007C4454545C007C2424247C007C54545415
:103318006C007C44444444007C44444438007C545D
:10332800545444007C14141404007C444454740021
:103338007C1010107C0044447C44440060404044AD
:103348007C007C10102844007C40404040007C08F1
:1033580010087C007C0810207C0038444444380065
:103368007C14141408003C2464243C007C141414B9
:1033780068005C545454740004047C0404007C40C9
:1033880040407C000C3040300C003C4030403C0059
:103398004428102844000C1060100C004464544C5D
:1033A80044007C44000000000C1060000000447CD5
:1033B8000000000000010001000040404040404083
:1033C8000001000000007C2424247C007C54545418
:1033D8006C007C44444444007C44444438007C549D
:1033E800545444007C14141404007C444454740061
:1033F8007C1010107C0044447C44440060404044ED
:103408007C007C10102844007C40404040007C0830
:1034180010087C007C0810207C00384444443800A4
:103428007C14141408003C2464243C007C141414F8
:1034380068005C545454740004047C0404007C4008
:1034480040407C000C3040300C003C4030403C0098
:103458004428102844000C1060100C004464544C9C
:103468004400107C440000006C0000000000447C14
:10347800100000000201020100000000000000002E
:103488000101010000010000000000002000000010
:1034980047414D4553000000534E414B4500000045
:1034A80054455452495300003E000000232D302B50
:1034B8002000686C4C00656667454647003031322D
:1034C8003334353637383941424344454600303184
:0F34D800323334353637383961626364656600E4
:1034E80078563412D80000200000000000000000C8
:1034F80000000000010203040607080900A24A04AC
:10350800A0A0A0A0A0A0A0A0A0A0A0A00306060321
:103518000702020701070701070404070203010164
:103528000302020302010301020203030202030170
:103538000101010300300140003800400106120378
:103548000303030302FFFFFF6C00002000000000DC
:103558000000000000000000000000000000000063
:103568000000000000000000000000000000000053
:103578000000000000000000000000000000000043
:103588000000000000000000000000000000000033
:103598000000000000000000000000000000000023
:1035A800000000000000000000000000325476987F
:040000050800010DE1
:00000001FF
